:020000040800F2
:1000000020350120890600086504000867040008FF
:100010006B0400086F04000873040008000000006F
:100020000000000000000000000000004102000885
:1000300077040008000000009D020008F952000843
:10004000A3060008A3060008A3060008A3060008EC
:10005000A3060008A3060008A3060008A3060008DC
:10006000A3060008A3060008A3060008A3060008CC
:10007000A3060008A3060008A3060008A3060008BC
:10008000A3060008A3060008A3060008A3060008AC
:10009000A3060008A3060008A3060008A30600089C
:1000A000A3060008A3060008A3060008A30600088C
:1000B000A3060008A3060008A3060008A30600087C
:1000C000A3060008A3060008A3060008A30600086C
:1000D000A3060008A3540008A3060008A30600080E
:1000E000A3060008A3060008A3060008A30600084C
:1000F000A3060008A3060008A3060008A30600083C
:10010000A3060008A3060008A3060008A30600082B
:10011000A3060008A3060008A3060008A30600081B
:10012000A3060008A3060008A3060008A30600080B
:10013000A3060008A3060008A3060008A3060008FB
:10014000A3060008A3060008A3060008A3060008EB
:10015000A3060008A3060008A3060008A3060008DB
:10016000A3060008A3060008A3060008A3060008CB
:10017000A3060008A3060008A3060008A3060008BB
:10018000A3060008A306000800F002F800F049F8F2
:100190000AA090E8000C82448344AAF10107DA45E2
:1001A00001D100F03EF8AFF2090EBAE80F0013F0EB
:1001B000010F18BFFB1A43F0010318471467000032
:1001C00034670000103A24BF78C878C1FAD85207C3
:1001D00024BF30C830C144BF04680C6070470000C1
:1001E0000023002400250026103A28BF78C1FBD840
:1001F000520728BF30C148BF0B607047662906F020
:100200001B83002070471FB506F011FB05F010FDA1
:1002100004000020002106F07DFAE0601FBD10B54B
:1002200010BD05F021FE1146FFF7EDFF00F0CCF800
:1002300005F03FFE03B4FFF7F2FF03BC05F0D2F870
:100240002C4B19680868B0E8F04F80F30988BFF3B9
:100250006F8F4FF0000080F311887047000000009E
:1002600008480068006880F308884FF0000080F3B9
:10027000148862B661B6BFF34F8FBFF36F8F00DF94
:1002800000BF00BF08ED00E0DFF80C00016841F49A
:1002900070010160704700BF88ED00E0EFF3098056
:1002A000BFF36F8F134B1A681EF0100F08BF20EDBD
:1002B000108A20E9F04F106009B44FF0500080F32D
:1002C0001188BFF34F8FBFF36F8F01F0CCFF4FF05A
:1002D000000080F3118809BC19680868B0E8F04F85
:1002E0001EF0100F08BFB0EC108A80F30988BFF32E
:1002F0006F8F704728000020EFF3058070470000E3
:100300002DED028B16E03D4890ED000ADFED3C0A32
:1003100030EE200A80ED000A006806F017FA41EC82
:10032000180B53EC182B37A005F002F94FF47A7034
:1003300001F042FEE7E70DE0002038490860C820E0
:1003400001F03AFE01203649C1F8A8024FF4487086
:1003500001F032FEF0E70AE03048001F0068C043B9
:100360002F49C1F8A4024FF4FA7001F025FEF3E71B
:100370001CB5044603F06BFE2A48022100233222FA
:10038000CDE9001028A1AFF2310001F00FFB2948A0
:10039000032100233222CDE9001027A1AFF269002A
:1003A00001F004FB2748042100238022CDE900103E
:1003B00025A1AFF2B30001F0F9FA2648006801F078
:1003C00042FB03F06BFE1CBD1CB54FF4E13005F0A1
:1003D00016F8A82004F098FF00F076F91D480121D6
:1003E00000238022CDE900101BA1AFF27B0001F0B9
:1003F000DDFA02F01CF900201CBD000010000020F6
:100400000AD7233C666C6F61745F6E756DB5C4D698
:10041000B5CEAAA3BA252E34660D0A00A8824242A0
:1004200000804242040000206C6564305F74617398
:100430006B000000080000206C6564315F7461731C
:100440006B0000000C000020666C6F61745F7461CB
:10045000736B00000000002073746172745F74613C
:10046000736B0000704700BFFEE700BFFEE700BFF0
:10047000FEE700BFFEE770470CB50020019000903A
:100480007648006840F480307449086000BF7348C3
:10049000006800F4003000900198401C0190009822
:1004A00018B90198B0F5A04FF1D16C48006800F47C
:1004B000003010B10120009001E000200090009871
:1004C000012846D165484030006840F080506349BB
:1004D000403108606248006840F44040604908606C
:1004E0005E48083000685D490831086008460068C9
:1004F00040F4004008600846006840F4A0500860DE
:100500005848091F0860081F006840F08070091FE4
:10051000086000BF5148006800F000700028F9D062
:1005200040F20570504908604C480830006820F0DF
:1005300003004A49083108600846006840F002009C
:10054000086000BF45480830006800F00C0008282B
:10055000F8D10CBD10B54548006840F4700043491F
:1005600008603E48006840F001003C4908600020F7
:100570003A4908310860394800683D490840374920
:1005800008603C48091D0860081F006820F48020AE
:10059000091F0860002031490C310860FFF76CFF2B
:1005A0004FF0006031498039086010BD70B50020FF
:1005B0000022022300240221284D08352D6805F071
:1005C0000C0020B1042806D0082834D107E02A4DB9
:1005D0002A4E356033E02A4D284E35602FE01F4DFE
:1005E0002D1D2D68C5F380541C4D2D1D2D6805F063
:1005F0003F0154B1224DB5FBF1F5184E361D36685A
:10060000C6F3881605FB06F209E01B4DB5FBF1F5B4
:10061000124E361D3668C6F3881605FB06F20F4DDE
:100620002D1D2D68C5F301456D1C6B00B2FBF3F564
:10063000124E356003E0104D104E356000BF00BF14
:10064000064D08352D68C5F303150E4E705D0B4D34
:100650002D68C540094E356070BD0000003802406D
:100660000070004008544007003C024088ED00E064
:10067000FFFFF6FE103000240024F40014000020D8
:1006800000127A00180000200948804709480047F6
:10069000FEE7FEE7FEE7FEE7FEE7FEE7FEE7FEE732
:1006A000FEE7FEE704480549054A064B704700008F
:1006B0005505000889010008202F01202035012060
:1006C00020310120203101201CB50121202004F01F
:1006D00095FA4FF4C060009001208DF804000020CE
:1006E0008DF8060003208DF8050001208DF8070025
:1006F0006946044803F0E4FF4FF4C061014804F088
:100700005BF81CBD0014024000F1080141604FF08D
:10071000FF31816000F10801C160016100210160C9
:10072000704700210161704742684A6093688B609E
:10073000936859609160086103685B1C03607047AF
:1007400010B502460B685C1C0CB9106907E002F199
:10075000080000E04068446824689C42FAD9446874
:100760004C604C68A160886041600A611468641C38
:10077000146010BD01460A69D1E901309860D1E9E1
:10078000010358605068884201D188685060002099
:1007900008611068401E1060106870472DE9F04134
:1007A00005460E4601272C4654B900BF502080F361
:1007B0001188BFF34F8FBFF36F8F00BF00BFFEE7FD
:1007C000002C42D0E06B00283FD04FF0FF31E06BAF
:1007D000B1FBF0F0216C884237D303F038FCD4E948
:1007E0000F12206801FB0200A0600020A0632068B7
:1007F0006060E06B401E226C216800FB0211E1602A
:10080000FF2084F8440084F845009EB9206908B9A7
:10081000012000E00020A8B904F1100002F01AF94C
:1008200080B14FF08050F6490860BFF34F8FBFF39F
:100830006F8F07E004F11000FFF766FF04F124005A
:10084000FFF762FF03F02AFC00E000270FB1012050
:1008500000E0002050B900BF502080F31188BFF3A2
:100860004F8FBFF36F8F00BF00BFFEE73846BDE874
:10087000F0812DE9F04106460D4617469846069C44
:100880000DB9246000E02760E6632564012120465D
:10089000FFF784FF84F84C80BDE8F0812DE9F84330
:1008A00005460E4617460024E5B1601EB0FBF5F084
:1008B000B04217D305FB06F010F1510F12D805FB1B
:1008C00006F808F1500003F0C6FC0446B4B1A14696
:1008D00009F150093B464A46314628460094FFF745
:1008E000C8FF0BE054B900BF502080F31188BFF35C
:1008F0004F8FBFF36F8F00BF00BFFEE72046BDE8FC
:10090000F88370B5044603F0A2FB94F9455010E05B
:10091000606A08B9012000E0002038B904F1240021
:1009200002F098F818B102F00DFA00E003E0681E3A
:1009300045B2002DECDC00BFFF2084F8450003F039
:10094000ADFB03F084FB94F9445010E0206908B932
:10095000012000E0002048B904F1100002F07AF80C
:1009600008B102F0EFF9681E45B200E001E0002D89
:10097000ECDC00BFFF2084F8440003F08FFB70BD67
:1009800070B5054603F063FBA86BE96B884201D1A3
:10099000012400E0002403F081FB204670BD2DE916
:1009A000F04104460F4615464FF00008A66B206C38
:1009B00048B9206800282CD1A06802F051FA80467E
:1009C0000020A06025E07DB93946226C606804F003
:1009D00042FE216C606808446060D4E901018842ED
:1009E00017D32068606014E03946226CE06804F098
:1009F00032FE216CE068411AE1602168E0688842BB
:100A000003D2216CA068411AE160022D01D106B128
:100A1000761E701CA0634046BDE8F0812DE9FF43BF
:100A200083B0064688461D464FF00009344654B947
:100A300000BF502080F31188BFF34F8FBFF36F8F3B
:100A400000BF00BFFEE7B8F1000F01D1206C08B96C
:100A5000012000E0002050B900BF502080F3118831
:100A6000BFF34F8FBFF36F8F00BF00BFFEE7022DB4
:100A700002D1E06B012801D1012000E0002050B933
:100A800000BF502080F31188BFF34F8FBFF36F8FEB
:100A900000BF00BFFEE702F067F908B9059808B982
:100AA000012000E0002050B900BF502080F31188E1
:100AB000BFF34F8FBFF36F8F00BF00BFFEE700BFD4
:100AC00003F0C5FAA06BE16B884201D3022D28D157
:100AD0002A4641462046FFF762FF0746606A08B98A
:100AE000012000E0002068B904F1240001F0B2FF09
:100AF00088B14FF0805042490860BFF34F8FBFF379
:100B00006F8F08E03FB14FF080503D490860BFF360
:100B10004F8FBFF36F8F03F0C1FA012007B0BDE81C
:100B2000F083059818B903F0B9FA0020F6E7B9F197
:100B3000000F04D101A802F0A7F84FF0010903F05B
:100B4000ADFA01F0CEF903F082FA94F94400401CAA
:100B500010B9002084F8440094F94500401C10B9F5
:100B6000002084F8450003F099FA05A901A802F0D5
:100B700092F8F0B92046FFF703FFA0B104F110008E
:100B8000059901F0DBFE2046FFF7BBFE01F0AEF851
:100B9000002895D14FF0805019490860BFF34F8F5E
:100BA000BFF36F8F8CE72046FFF7ABFE01F09EF896
:100BB00086E72046FFF7A5FE01F098F80020ADE794
:100BC00010B5044654B10020A06020600021E1600F
:100BD00000231A4619462046FFF720FF10BD2DE9D5
:100BE000F041044601260027224600210120FFF79C
:100BF00055FE05462846FFF7E3FF2846BDE8F0818D
:100C000004ED00E070B505462C4654B900BF5020F5
:100C100080F31188BFF34F8FBFF36F8F00BF00BF0A
:100C2000FEE702F09EF8A16888420CD1E068401E01
:100C3000E060E06828B900231A4619462046FFF70D
:100C4000EDFE012600E00026304670BD01464A6AEE
:100C500022B10A6B1268C2F1050000E00020704763
:100C600070B5054603F0F3F9A86B08B9012400E05C
:100C7000002403F013FA204670BD2DE9F34182B041
:100C800005464FF000082C46002654B900BF5020FE
:100C900080F31188BFF34F8FBFF36F8F00BF00BF8A
:100CA000FEE7206C08B9012000E0002050B900BF29
:100CB000502080F31188BFF34F8FBFF36F8F00BFB9
:100CC00000BFFEE702F050F808B9039808B9012008
:100CD00000E0002050B900BF502080F31188BFF31E
:100CE0004F8FBFF36F8F00BF00BFFEE700BF03F061
:100CF000AEF9A76BFFB1781EA063206810B902F0AF
:100D0000B2F9A060206908B9012000E0002060B9B4
:100D100004F1100001F09EFE38B14FF08050F94907
:100D20000860BFF34F8FBFF36F8F03F0B7F9012057
:100D300004B0BDE8F081039898B90EB9012000E035
:100D4000002050B900BF502080F31188BFF34F8FAF
:100D5000BFF36F8F00BF00BFFEE703F09FF90020D5
:100D6000E6E7B8F1000F04D1684601F08DFF4FF0BF
:100D7000010803F093F901F0B4F803F068F994F96D
:100D80004400401C10B9002084F8440094F9450048
:100D9000401C10B9002084F8450003F07FF903A936
:100DA000684601F078FF40BB2046FFF759FFF0B1DD
:100DB000206838B903F04BF9A06801F0E1FF06465E
:100DC00003F06CF904F12400039901F0B7FD20460B
:100DD000FFF797FD00F08AFF002888D14FF0805080
:100DE000C8490860BFF34F8FBFF36F8F7FE720467E
:100DF000FFF787FD00F07AFF79E72046FFF781FDD6
:100E000000F074FF2046FFF72BFF0028EED05EB104
:100E100003F01DF92046FFF719FF07463946A06881
:100E200002F08FF803F03AF9002081E72DE9F04154
:100E300006460F46344654B900BF502080F311884F
:100E4000BFF34F8FBFF36F8F00BF00BFFEE701F00E
:100E500088FFA168884204D1E068401CE060012559
:100E600008E039462046FFF708FF054615B1E0685F
:100E7000401CE0602846BDE8F08170B505460E468E
:100E8000002455B1AE4208D8022200212846FFF7BF
:100E900005FD04466CB1A6630BE054B900BF5020B9
:100EA00080F31188BFF34F8FBFF36F8F00BF00BF78
:100EB000FEE7204670BD2DE9F84F07468B46904669
:100EC0001E463C4654B900BF502080F31188BFF342
:100ED0004F8FBFF36F8F00BF00BFFEE7BBF1000F66
:100EE00001D1206C08B9012000E0002050B900BFFA
:100EF000502080F31188BFF34F8FBFF36F8F00BF77
:100F000000BFFEE7022E02D1E06B012801D10120D3
:100F100000E0002050B900BF502080F31188BFF3DB
:100F20004F8FBFF36F8F00BF00BFFEE703F0EAF8FB
:100F300000BF5021EFF3118081F31188BFF34F8F71
:100F4000BFF36F8F00BF0546A06BE16B884201D3F2
:100F5000022E37D194F945A0A06B00903246594635
:100F60002046FFF71CFD0AF1010088B9606A08B944
:100F7000012000E0002050B904F1240001F06AFDD6
:100F800028B1B8F1000F02D00120C8F8000016E027
:100F9000BAF17F0F01D0012000E0002050B900BF5E
:100FA000502080F31188BFF34F8FBFF36F8F00BFC6
:100FB00000BFFEE70AF1010040B284F845004FF09F
:100FC000010901E04FF0000900BF85F3118800BF5F
:100FD0004846BDE8F88F2DE9F04706460F463446EF
:100FE00054B900BF502080F31188BFF34F8FBFF377
:100FF0006F8F00BF00BFFEE7206C08B9012000E042
:10100000002050B900BF502080F31188BFF34F8FEC
:10101000BFF36F8F00BF00BFFEE7206808B9A0686C
:1010200008B9012000E0002050B900BF502080F333
:101030001188BFF34F8FBFF36F8F00BF00BFFEE774
:1010400003F060F800BF5021EFF3118081F31188A5
:10105000BFF34F8FBFF36F8F00BF0546D4F838A0A2
:10106000E06B504530D994F945900AF10100A06336
:1010700009F1010070B9606A08B9012000E00020A0
:10108000F8B904F1240001F0E5FCD0B1CFB10120A2
:10109000386016E0B9F17F0F01D0012000E0002098
:1010A00050B900BF502080F31188BFF34F8FBFF3BA
:1010B0006F8F00BF00BFFEE709F1010040B284F866
:1010C00045004FF0010801E04FF0000800BF85F334
:1010D000118800BF4046BDE8F08770B504460D4654
:1010E000206C70B1216CE0680144E160D4E9021029
:1010F000884201D32168E1602846226CE16804F04F
:10110000AAFA70BD04ED00E02DE9F74183B0054671
:101110000E464FF000082C4654B900BF502080F313
:101120001188BFF34F8FBFF36F8F00BF00BFFEE783
:101130000EB9206C08B9012000E0002050B900BFB2
:10114000502080F31188BFF34F8FBFF36F8F00BF24
:1011500000BFFEE701F008FE08B9059808B90120B4
:1011600000E0002050B900BF502080F31188BFF389
:101170004F8FBFF36F8F00BF00BFFEE700BF02F0CD
:1011800066FFA76BF7B131462046FFF7A6FF781E32
:10119000A063206908B9012000E0002060B904F1D3
:1011A000100001F057FC38B14FF08050F84908604A
:1011B000BFF34F8FBFF36F8F02F070FF012006B0B7
:1011C000BDE8F081059818B902F068FF0020F6E745
:1011D000B8F1000F04D101A801F056FD4FF001084D
:1011E00002F05CFF00F07DFE02F031FF94F9440054
:1011F000401C10B9002084F8440094F94500401CBC
:1012000010B9002084F8450002F048FF05A901A8A4
:1012100001F041FDF0B92046FFF722FDA0B104F135
:101220002400059901F08AFB2046FFF76AFB00F0D5
:101230005DFD0028A3D14FF08050D5490860BFF371
:101240004F8FBFF36F8F9AE72046FFF75AFB00F0EE
:101250004DFD94E72046FFF754FB00F047FD204684
:10126000FFF7FEFC00288AD00020A8E72DE9F7430D
:1012700082B005460E464FF000082C4654B900BF18
:10128000502080F31188BFF34F8FBFF36F8F00BFE3
:1012900000BFFEE70EB9206C08B9012000E0002075
:1012A00050B900BF502080F31188BFF34F8FBFF3B8
:1012B0006F8F00BF00BFFEE701F056FD08B904982C
:1012C00008B9012000E0002050B900BF502080F391
:1012D0001188BFF34F8FBFF36F8F00BF00BFFEE7D2
:1012E00000BF02F0B4FED4F83890B9F1000F1ED060
:1012F000E76831462046FFF7F0FEE760606A08B90C
:10130000012000E0002060B904F1240001F0A2FBFC
:1013100038B14FF080509E490860BFF34F8FBFF344
:101320006F8F02F0BBFE012005B0BDE8F08304988A
:1013300018B902F0B3FE0020F6E7B8F1000F04D1AF
:10134000684601F0A1FC4FF0010802F0A7FE00F092
:10135000C8FD02F07CFE94F94400401C10B9002046
:1013600084F8440094F94500401C10B9002084F82A
:10137000450002F093FE04A9684601F08CFCF0B928
:101380002046FFF76DFCA0B104F12400049901F0A0
:10139000D5FA2046FFF7B5FA00F0A8FC0028A0D146
:1013A0004FF080507A490860BFF34F8FBFF36F8FC3
:1013B00097E72046FFF7A5FA00F098FC91E7204652
:1013C000FFF79FFA00F092FC2046FFF749FC002847
:1013D00087D00020A8E72DE9F05F06468A46174629
:1013E000344654B900BF502080F31188BFF34F8FAB
:1013F000BFF36F8F00BF00BFFEE7BAF1000F01D14E
:10140000206C08B9012000E0002050B900BF502036
:1014100080F31188BFF34F8FBFF36F8F00BF00BF02
:10142000FEE702F06FFE00BF5021EFF3118081F361
:101430001188BFF34F8FBFF36F8F00BF0546D4F8FD
:1014400038B0BBF1000F34D094F944905146204697
:10145000FFF743FEABF10100A06309F1010070B991
:10146000206908B9012000E00020F8B904F110005B
:1014700001F0F0FAD0B1CFB10120386016E0B9F137
:101480007F0F01D0012000E0002050B900BF5020A4
:1014900080F31188BFF34F8FBFF36F8F00BF00BF82
:1014A000FEE709F1010040B284F844004FF0010862
:1014B00001E04FF0000800BF85F3118800BF4046EF
:1014C000BDE8F09F2DE9F04706468846344654B9FA
:1014D00000BF502080F31188BFF34F8FBFF36F8F91
:1014E00000BF00BFFEE7B8F1000F01D1206C08B9C2
:1014F000012000E0002050B900BF502080F3118887
:10150000BFF34F8FBFF36F8F00BF00BFFEE7206CAC
:1015100008B1012000E0002050B900BF502080F346
:101520001188BFF34F8FBFF36F8F00BF00BFFEE77F
:1015300002F0E8FD00BF5021EFF3118081F3118824
:10154000BFF34F8FBFF36F8F00BF0546A06B48B14D
:10155000D4F80C9041462046FFF7BFFDC4F80C902C
:10156000012700E0002700BF85F3118800BF38463F
:10157000BDE8F08770B5044664B900BF502080F321
:101580001188BFF34F8FBFF36F8F00BF00BFFEE71F
:1015900004ED00E002F05BFDA56B02F07FFD284644
:1015A00070BD70B50446254655B900BF502080F384
:1015B0001188BFF34F8FBFF36F8F00BF00BFFEE7EF
:1015C00002F045FDD5E90E10461A02F067FD3046DF
:1015D00070BD10B501460A4652B900BF502383F3CF
:1015E0001188BFF34F8FBFF36F8F00BF00BFFEE7BF
:1015F000906B10BD014651B900BF502282F3118893
:10160000BFF34F8FBFF36F8F00BF00BFFEE7002017
:101610000EE0684A02EBC00252688A4207D10022FB
:10162000644B43F8302003EBC0035A6002E0401CD7
:101630000828EED300BF704770B50446254655B95B
:1016400000BF502080F31188BFF34F8FBFF36F8F1F
:1016500000BF00BFFEE72846FFF7CCFF284602F098
:10166000A3FE70BD0146886C7047816470470146D7
:1016700091F84C00704710B501460A4652B900BFB8
:10168000502383F31188BFF34F8FBFF36F8F00BFD9
:1016900000BFFEE7936B0BB9012000E0002010BDF6
:1016A00010B501460A4652B900BF502383F3118892
:1016B000BFF34F8FBFF36F8F00BF00BFFEE7936B89
:1016C000D46BA34201D1012000E0002010BD30B551
:1016D00002460B4652B900BF502484F31188BFF371
:1016E0004F8FBFF36F8F00BF00BFFEE70021BBB17C
:1016F000002012E02F4C04EBC0046468944203D134
:101700002C4C04EBC0010AE031B92A4C54F83040AB
:1017100014B9284C04EBC001401C0828EAD300BFD0
:1017200009B10B604A6030BD10B50246002052B9C5
:1017300000BF502383F31188BFF34F8FBFF36F8F28
:1017400000BF00BFFEE700210AE01A4B03EBC10314
:101750005B68934203D1174B53F8310002E0491CF8
:101760000829F2D300BF10BD2DE9F04105460E4611
:1017700017462C4602F06BFC94F94400401C10B94B
:10178000002084F8440094F94500401C10B9002062
:1017900084F8450002F082FCA06B28B93A46314635
:1017A00004F1240001F027F92046FFF7AAF8BDE86C
:1017B000F0810000C400002010B5002407E004EB15
:1017C0008401FA4A02EB8100FEF79EFF641C052C9F
:1017D000F5D3F748FEF798FFF648FEF795FFF64871
:1017E000FEF792FFF548FEF78FFFF548FEF78CFFF6
:1017F000EF48F4490860EF48F349086010BD10B5A0
:10180000044602F024FCF1480068401CEF490860DF
:10181000EF48006840B9EE480460084600680128B7
:101820000DD1FFF7C9FF0AE0EA48006838B9E84877
:101830000068C06AE16A884201D8E5480460E64869
:101840000068401CE449086008460068206494F879
:101850002C1001208840E14909680843DF490860ED
:10186000E16A01EB8101D14A02EB81014868A06085
:101870008268E260211D826851608160E16A01EB4B
:101880008101CA4A02EB81026261E16A01EB8101D6
:10189000C64A52F82110491CE26A02EB8202C34B8D
:1018A00043F8221002F0FAFBCA48006868B1C84841
:1018B0000068C06AE16A884207D24FF08050C84988
:1018C0000860BFF34F8FBFF36F8F10BD2DE9F05F3E
:1018D00082460F4690469B460A9E0C9C4FEA880122
:1018E000A522206B03F0FCFEA8F10100216B01EBA7
:1018F000800929F0070909F0070008B9012000E074
:10190000002050B900BF502080F31188BFF34F8FE3
:10191000BFF36F8F00BF00BFFEE787B1002507E070
:10192000795D04F134004155785D00B902E06D1C29
:101930000A2DF5D300BF00213D20015502E0002013
:1019400084F83400052E01D2012000E0002050B9B7
:1019500000BF502080F31188BFF34F8FBFF36F8F0C
:1019600000BF00BFFEE7052E00D30426E662A66492
:101970000020E064201DFEF7D4FE04F11800FEF7FD
:10198000D0FE2461C6F10500A061646200202065DC
:1019900084F854005A465146484602F079FA2060CD
:1019A0000B9808B10B980460BDE8F09F2DE9FF4F3C
:1019B00085B0804689461746DDE912ABB80002F0D3
:1019C0004AFC064656B1582002F045FC04460CB1CC
:1019D000266304E0304602F0E7FC00E000247CB11E
:1019E0000020CDE900ABCDE902403A4649464046E9
:1019F000089BFFF76BFF2046FFF701FF012501E081
:101A00004FF0FF35284609B0BDE8F08F6D480068FB
:101A1000006808B9012000E0002020B14FF0FF303D
:101A20007049086005E067480068C06800686D4953
:101A30000860704710B50446206B02F0B5FC2046E4
:101A400002F0B2FC10BD70B5054602F000FB15B9FE
:101A50005F48006800E028460446201DFEF78AFE25
:101A600078B9E06A00EB8000504951F8200040B995
:101A700094F82C1001208840584909688143574840
:101A80000160A06A18B104F11800FEF773FE524815
:101A90000068401C504908604D480068844209D1E4
:101AA000211D4648FEF740FE4F480068401C4E4945
:101AB000086009E045480068401E44490860204627
:101AC000FFF7B8FFFFF7A2FF02F0E8FA414800680D
:101AD000E8B13F480068844219D14448006808B919
:101AE000012000E0002050B900BF502080F3118891
:101AF000BFF34F8FBFF36F8F00BF00BFFEE74FF004
:101B0000805037490860BFF34F8FBFF36F8F70BDB0
:101B10002DE9F0414FF0000834480068002844D116
:101B200033480068451C3248056015BB25480068ED
:101B3000006808B9012000E0002050B900BF502023
:101B400080F31188BFF34F8FBFF36F8F00BF00BFCB
:101B5000FEE71C4807681C4800681A4908601A48D4
:101B6000076024480068401C22490860FFF74EFFC8
:101B700000BF1C48006885427ED300BF1148006842
:101B8000006808B9012000E0002020B14FF0FF30CC
:101B9000144908608FE00B480068C068C468666834
:101BA000B54229D20F48066085E097E00401002085
:101BB000680100207C01002090010020A401002089
:101BC000B80100202C000020300000203800002048
:101BD0002800002044000020540000204000002085
:101BE00004ED00E0580000203400002064000020D4
:101BF0003C000020500000206069D4E902128A6095
:101C0000D4E902214A60211D42688A4201D1E1687B
:101C10004160002262610168491E0160A06A98B1BA
:101C2000A06AD4E907128A60D4E907214A6004F166
:101C3000180142688A4201D1216A41600022A262F1
:101C40000168491E016000BF94F82C1001208840F3
:101C5000F94909680843F8490860E16A01EB810124
:101C6000F64A02EB81014868A0608268E260211DAB
:101C700082685160816000E01EE0E16A01EB810151
:101C8000EE4A02EB81026261E16A01EB8101EB4AFB
:101C900052F82110491CE26A02EB8202E74B43F83A
:101CA0002210E749E06A0968C96A8842FFF466AF12
:101CB0004FF0010862E700BFE1480068C06A00EB2E
:101CC0008000DE4951F82000012801D94FF00108B9
:101CD000DC48006808B14FF0010804E0DA48006809
:101CE000401CD94908604046BDE8F08170B5002429
:101CF0000026D648006850B900BF502080F31188F4
:101D0000BFF34F8FBFF36F8F00BF00BFFEE702F03E
:101D10009EF9CE480068401ECC490860084600681D
:101D200000287DD1CA480068002879D05BE0C94806
:101D3000C068C468A06AD4E907128A60D4E90721A0
:101D40004A6004F1180142688A4201D1216A416067
:101D50000022A2620168491E01606069D4E9021292
:101D60008A60D4E902214A60211D42688A4201D179
:101D7000E1684160002262610168491E016094F8D7
:101D80002C1001208840AC4909680843AA49086022
:101D9000E16A01EB8101A94A02EB81014868A06078
:101DA0008268E260211D826851608160E16A01EB16
:101DB0008101A24A02EB81026261E16A01EB8101C9
:101DC0009E4A52F82110491CE26A02EB82029B4BA8
:101DD00043F822109A49E06A0968C96A884202D326
:101DE0000120984908609B48006808B9012000E07C
:101DF000002000289BD00CB1FFF708FE9248056830
:101E000065B100BFFFF784FE10B101208D49086065
:101E10006D1E002DF6D100208B490860894800E036
:101E200009E0006838B1012630078B490860BFF32C
:101E30004F8FBFF36F8F02F031F9304670BD2DE93F
:101E4000F04105460E46854807687D480068001D3C
:101E5000FEF790FC50B97A48006890F82C100120E9
:101E6000884075490968814373480160681CD8B986
:101E7000D6B17B49486872490968886070498268B0
:101E80000968CA606E490968091D826851606C4919
:101E90000968091D8160724A694909684A611146E9
:101EA0000968491C11601AE07C19654800684460A3
:101EB000BC4207D262480168091D6A480068FEF703
:101EC0003FFC0CE05E480168091D67480068FEF7AA
:101ED00037FC66480068844201D264480460BDE86B
:101EE000F0815A480068401C5849086070472DE945
:101EF000F04704460F464FF0000954B900BF502088
:101F000080F31188BFF34F8FBFF36F8F00BF00BF07
:101F1000FEE70FB1012000E0002050B900BF5020C3
:101F200080F31188BFF34F8FBFF36F8F00BF00BFE7
:101F3000FEE74648006808B9012000E0002050B9DB
:101F400000BF502080F31188BFF34F8FBFF36F8F16
:101F500000BF00BFFEE7FFF7C4FF404806682068E7
:101F6000C5192068B04207D92068A8420BD9B542EC
:101F700009D94FF0010906E02068A84201D8B5420E
:101F800001D94FF001092560B9F1000F03D0A81B5A
:101F90000021FFF754FFFFF7A9FE8046B8F1000FBC
:101FA00007D14FF080502C490860BFF34F8FBFF32B
:101FB0006F8F4846BDE8F08770B504460025D4B160
:101FC0002248006808B9012000E0002050B900BF95
:101FD000502080F31188BFF34F8FBFF36F8F00BF86
:101FE00000BFFEE7FFF77DFF00212046FFF727FF38
:101FF000FFF77CFE05463DB94FF08050164908605A
:10200000BFF34F8FBFF36F8F70BD2DE9F0470746C9
:102010003E4656B900BF502080F31188BFF34F8F62
:10202000BFF36F8F00BF00BFFEE705480068864220
:102030001ED100244AE000004000002004010020DE
:10204000280000204C0000204800002064000020F0
:10205000380000209001002004ED00E03C0000204A
:10206000B8010020300000202C0000205800002083
:1020700001F0EDFF7569FE48D0F80080FD48D0F80A
:10208000009002F00BF8454501D04D4501D10224E6
:102090001CE0F948854212D1B06A70B903240020CF
:1020A00007E006F15401095C012901D1022402E094
:1020B000401C0128F5DB00BF08E0022406E0EF48E1
:1020C000854200D00DB9042400E001242046BDE87B
:1020D000F08770B5044601F0BAFF14B9E84800680B
:1020E00000E020460646F56A01F0D8FF284670BD9C
:1020F0002DE9F041054602F005F800BF5021EFF34D
:10210000118081F31188BFF34F8FBFF36F8F00BF32
:10211000044615B9DA48006800E028460746FE6A1A
:1021200000BF84F3118800BF3046BDE8F0812DE97F
:10213000F04780460D464FF00009052D01D20120E1
:1021400000E0002050B900BF502080F31188BFF399
:102150004F8FBFF36F8F00BF00BFFEE7052D00D389
:10216000042501F074FFB8F1000F02D1C4480068E3
:1021700000E040460446A66CAE4270D0B5420BD992
:10218000BF48006884420DD0BD480068C06AA842BC
:1021900008D84FF0010905E0B9480068844201D130
:1021A0004FF00109E76AE16AA06C884200D1E5625C
:1021B000A564A06900F0004010B9C5F10500A06158
:1021C00007EB8701AF4A02EB81016069884201D1C8
:1021D000012000E00020B0B3201DFEF7CBFA30B99B
:1021E0000120B840A84909688143A748016094F8D4
:1021F0002C1001208840A44909680843A2490860BE
:10220000E16A01EB81019F4A02EB81014868A0600D
:102210008268E260211D826851608160E16A01EBA1
:102220008101984A02EB81026261E16A01EB81015E
:10223000944A52F82110491CE26A02EB8202914B47
:1022400043F8221000BFB9F1000F07D04FF08050C3
:102250008E490860BFF34F8FBFF36F8F00BF01F04F
:102260001DFFBDE8F0878A48006818B10120894940
:10227000086032E000208749086083480068B0FAAF
:1022800080F0C0F11F0101EB81007E4A52F820006E
:1022900008B1012000E0002050B900BF502080F3B9
:1022A0001188BFF34F8FBFF36F8F00BF00BFFEE7F2
:1022B00001EB8102734B03EB82004268526842607B
:1022C00000F108024368934202D1426852684260BA
:1022D0004268D2686A4B1A6000BF704770B5054605
:1022E00001F0B5FE15B96648006800E028460446CE
:1022F000201DFEF73FFA78B9E06A00EB80006149E3
:1023000051F8200040B994F82C10012088405E4913
:10231000096881435C480160A06A18B104F11800A3
:10232000FEF728FA211D5448FEF7FEF9002009E0C7
:1023300004F15401095C012903D1002204F1540184
:102340000A54401C0128F3DB01F0A8FE5248006843
:1023500028B101F07CFEFFF759FB01F09FFE4848D1
:102360000068844229D14C480068D0B148480068D0
:1023700008B9012000E0002050B900BF502080F3D0
:102380001188BFF34F8FBFF36F8F00BF00BFFEE711
:102390004FF080503D490860BFF34F8FBFF36F8F00
:1023A0000BE0354800683D490968884203D10020A8
:1023B0003349086001E0FFF756FF70BD10B50246D3
:1023C0000020114652B900BF502383F31188BFF398
:1023D0004F8FBFF36F8F00BF00BFFEE7264C4B69E6
:1023E000A34201D1012300E0002373B12C4C8B6A7E
:1023F000A34201D1012300E0002333B98B6A0BB95A
:10240000012300E0002303B1012010BD70B5054693
:102410002C4655B900BF502080F31188BFF34F8F71
:10242000BFF36F8F00BF00BFFEE71548006884420E
:1024300061D0002C5FD001F00AFE2046FFF7BEFFFE
:1024400080B3201DFEF796F994F82C1001208840E7
:102450000D49096808430C490860E16A01EB8101F4
:10246000084A02EB81014868A0608268E2601AE0D5
:102470002C00002030000020B8010020A401002022
:1024800028000020040100204000002004ED00E0AE
:10249000640000204C000020440000203800002090
:1024A0009001002025E0211D826851608160E16A71
:1024B00001EB8101FC4A02EB81026261E16A01EBFE
:1024C0008101F94A52F82110491CE26A02EB8202AA
:1024D000F54B43F82210F549E06A0968C96A884259
:1024E00007D34FF08050F2490860BFF34F8FBFF31E
:1024F0006F8F01F0D3FD70BD2DE9F0410646002736
:10250000344656B900BF502080F31188BFF34F8F77
:10251000BFF36F8F00BF00BFFEE701F0F3FD00BF08
:102520005021EFF3118081F31188BFF34F8FBFF378
:102530006F8F00BF05462046FFF740FF002841D0BF
:10254000DC480068C0BBD949E06A0968C96A8842AA
:1025500003D301270120D8490860201DFEF70AF99E
:1025600094F82C1001208840D44909680843D349C5
:102570000860E16A01EB8101CB4A02EB8101486806
:10258000A0608268E260211D826851608160E16A1A
:1025900001EB8101C44A02EB81026261E16A01EB55
:1025A0008101C14A52F82110491CE26A02EB820201
:1025B000BD4B43F8221005E0FFE704F11801C048C5
:1025C000FEF7B2F800BF85F3118800BF3846BDE8BA
:1025D000F08110B516E001F03AFDBA48C068C46851
:1025E000201DFEF7C7F8B8480068401EB6490860CD
:1025F000B6480068401EB549086001F04FFD20460E
:10260000FFF718FAB14800680028E4D110BD00BFF8
:10261000FFF7DFFFA44800680128F9D94FF0805088
:10262000A3490860BFF34F8FBFF36F8FF0E71CB56E
:10263000A74800210B468222CDE90010A5A1A7489A
:10264000FFF7B4F90446012C02D101F069FA0446FF
:10265000012C15D100BF502080F31188BFF34F8F9C
:10266000BFF36F8F00BF4FF0FF309D49086001201E
:102670009C49086000209C49086001F02EFC10E095
:10268000601C08B1012000E0002050B900BF5020BC
:1026900080F31188BFF34F8FBFF36F8F00BF00BF70
:1026A000FEE7924800681CBD10B500BF502080F3C3
:1026B0001188BFF34F8FBFF36F8F00BF0020894990
:1026C000086001F0AFFC10BD87490868704770B51D
:1026D00001F018FD002584480468204670BD7A4842
:1026E00000687047014611B97048006800E008466C
:1026F000024652B900BF502080F31188BFF34F8FBC
:10270000BFF36F8F00BF00BFFEE702F134007047D8
:102710000246002101E0521C491C1078A528FAD07D
:10272000890888B270472DE9F04107460C4690466B
:102730001E4617B95D48006800E03846054625602A
:1027400005F134006060E86A2061286BE061286C64
:10275000A060A86C60610020A061052E12D05348D3
:102760000068854202D1002020730FE02673032EFB
:102770000CD1FFF7B6FBA86A08B102202073FFF75F
:10278000B5FA03E02846FFF740FC2073B8F1000FCC
:1027900004D0286BFFF7BCFF208401E000202084D8
:1027A000BDE8F0812DE9F04707460C46904600262B
:1027B000206848B3204641684968416000F108013B
:1027C00042688A4202D14168496841604168D1F853
:1027D0000C9000BF204641684968416000F1080143
:1027E00042688A4202D14168496841604168CD68C7
:1027F00006EBC60007EB8001434601222846FFF79F
:1028000092FF761C4D45E5D13046BDE8F0872DE9B5
:10281000F04105468846164600240527FFF761FB70
:1028200029480068804539D300BF7F1E07EB870227
:102830001D4B03EB820104EBC40205EB8200012275
:10284000FFF7B0FF0444002FEFD104EBC40105EB08
:102850008100022226490968FFF7A4FF044404EB23
:10286000C40105EB8100022222490968FFF79AFFA3
:10287000044404EBC40105EB810004221149FFF775
:1028800091FF044404EBC40105EB810003221A49C3
:10289000FFF788FF04440EB100203060FFF726FAEE
:1028A0002046BDE8F081000004010020280000203F
:1028B00004ED00E0640000204C00002040000020F7
:1028C00090010020A40100203800002034000020E6
:1028D0005C00002049444C45000000000F26000821
:1028E00058000020440000203C0000206000002030
:1028F0002C00002030000020B801002070B50446F4
:10290000F848006808B9012000E0002050B900BF75
:10291000502080F31188BFF34F8FBFF36F8F00BF3C
:1029200000BFFEE7FFF7DDFAEF4800682044EE49FC
:102930000860FFF7DBF90546284670BD70B5044610
:102940000D4654B900BF502080F31188BFF34F8F5C
:10295000BFF36F8F00BF00BFFEE7E4480168183186
:102960002046FDF7EDFE01212846FFF768FA70BD0D
:1029700070B504460D46164654B900BF502080F38A
:102980001188BFF34F8FBFF36F8F00BF00BFFEE70B
:10299000D448006808B1012000E0002050B900BF11
:1029A000502080F31188BFF34F8FBFF36F8F00BFAC
:1029B00000BFFEE745F00040CC49096888616068C7
:1029C000CA490968C861C949826809680A62C74971
:1029D0000968183182685160C449096818318160FA
:1029E000C24909688C622168491C21600121304676
:1029F000FFF725FA70BD70B504460E46154654B96A
:102A000000BF502080F31188BFF34F8FBFF36F8F4B
:102A100000BF00BFFEE76068B4490968C861B349F8
:102A2000826809680A62B149096818318268516090
:102A3000AE49096818318160AC4909688C62216827
:102A4000491C21600DB14FF0FF3629463046FFF793
:102A5000F6F970BD70B50346D868C16851B900BFBA
:102A6000502080F31188BFF34F8FBFF36F8F00BFEB
:102A700000BFFEE7886AD1E90745A560D1E90754A0
:102A8000656001F118044568A54201D10C6A4460F3
:102A900000258D620468641E046092480068002866
:102AA0003DD14869D1E90245A560D1E9025465608C
:102AB0000C1D4568A54201D1CC68446000254D61DC
:102AC0000468641E046091F82C400120A040884CEA
:102AD00024682043864C2060CC6A04EB8404854D36
:102AE00005EB8404606888608568CD600C1D85688E
:102AF0006C608460CC6A04EB84047E4D05EB840535
:102B00004D61CC6A04EB84047A4D55F82440641C72
:102B1000CD6A05EB8505774E46F8254010E0764CEA
:102B20006068C86185680D6201F1180485686C6091
:102B30008460714D8D622C462468641C2C6000BF3B
:102B40006A4CC86A2468E46AA04204D901220120C0
:102B50006A4C206000E00022104670BD70B502464D
:102B60000B466049096809B1012100E0002151B913
:102B700000BF502181F31188BFF34F8FBFF36F8FD8
:102B800000BF00BFFEE743F000411160D06850B9BC
:102B900000BF502181F31188BFF34F8FBFF36F8FB8
:102BA00000BF00BFFEE71169D2E90154AC60D2E971
:102BB00001456C604C68944201D194684C600024DB
:102BC00014610C68641E0C604169D0E90245A5607F
:102BD000D0E902546560041D4D68A54201D1C46866
:102BE0004C60002545610C68641E0C6090F82C4018
:102BF0000121A1403E4C246821433D4C2160C46A20
:102C000004EB84043B4D05EB8404616881608D68AE
:102C1000C560041D8D686C608C60C46A04EB84041C
:102C2000344D05EB84054561C46A04EB8404314DE1
:102C300055F82440641CC56A05EB85052D4E46F801
:102C400025402A4CC16A2468E46AA14202D90121C4
:102C50002A4C216070BD10B5044654B900BF502005
:102C600080F31188BFF34F8FBFF36F8F00BF00BF9A
:102C7000FEE701F0ECF92248006820602148006876
:102C8000606001F00BFA10BD1D49096801601D4923
:102C900009684160704770B505460C4655B900BFDC
:102CA000502080F31188BFF34F8FBFF36F8F00BFA9
:102CB00000BFFEE754B900BF502080F31188BFF376
:102CC0004F8FBFF36F8F00BF00BFFEE701F0BFF96A
:102CD0000C4802686868131A2068401CA0B90026D6
:102CE0002CE00000640000204800002028000020A4
:102CF0004000002004010020900100204C00002032
:102D0000500000203C000020FD49286809688842E6
:102D100006D06868904203D80126002020600DE0AC
:102D20002068984207D92068C01A20602846FFF71B
:102D3000ABFF002602E000202060012601F0AEF982
:102D4000304670BD0120EF4908607047014611B15F
:102D50000A46506C00E00020704708B102465164FA
:102D60007047E94908687047E849096809B90120CE
:102D700005E0E749096809B9022000E00020704732
:102D800070B505462C460026002D67D0DE49E06A66
:102D90000968C96A88425AD2A06900F0004028B97F
:102DA000D9480068C06AC0F10500A061E16A01EB82
:102DB0008101D84A02EB81016069884201D101207A
:102DC00000E00020E0B3201DFDF7D4FC40B994F8EA
:102DD0002C1001208840D04909688143CE48016009
:102DE000C9480068C06AE06294F82C10012088404D
:102DF000C94909680843C8490860E16A01EB8101D3
:102E0000C44A02EB81014868A0608268E260211D2B
:102E1000826851608160E16A01EB8101BD4A02EB89
:102E200081026261E16A01EB8101BA4A52F8211024
:102E3000491CE26A02EB8202B64B43F8221004E01E
:102E4000FFE7B1480068C06AE062012606E0AE49CB
:102E5000A06C0968C96A884200D20126304670BD5C
:102E600070B505462C460026002D68D0A64800689F
:102E7000844201D1012000E0002050B900BF502061
:102E800080F31188BFF34F8FBFF36F8F00BF00BF78
:102E9000FEE7E06C50B900BF502080F31188BFF30B
:102EA0004F8FBFF36F8F00BF00BFFEE7E06C401E87
:102EB000E064A16CE06A884241D0E06C00283ED119
:102EC000201DFDF757FC40B994F82C1001208840D4
:102ED00091490968814390480160A06CE062E06A12
:102EE000C0F10500A06194F82C10012088408A49A7
:102EF0000968084388490860E16A01EB8101854A55
:102F000002EB81014868A0608268E260211D82684E
:102F100051608160E16A01EB81017E4A02EB81022E
:102F20006261E16A01EB81017A4A52F82110491C81
:102F3000E26A02EB8202774B43F822100126304608
:102F400070BD2DE9F04706460F4634464FF00109A3
:102F5000002E7AD0E06C50B900BF502080F3118869
:102F6000BFF34F8FBFF36F8F00BF00BFFEE7A06CB2
:102F7000B84201D23D4600E0A56CE06AA84264D0A8
:102F8000E06C012861D160480068844201D00120D2
:102F900000E0002050B900BF502080F31188BFF33B
:102FA0004F8FBFF36F8F00BF00BFFEE7D4F82C80B8
:102FB000E562A06900F0004010B9C5F10500A0610C
:102FC00008EB8801534A02EB81016069884201D114
:102FD000012000E00020C0B3201DFDF7CBFB40B96D
:102FE00094F82C10012088404B49096881434A48D5
:102FF000016094F82C100120884047490968084373
:1030000045490860E16A01EB8101424A02EB810116
:103010004868A0608268E260211D8268516081601A
:10302000E16A01EB81013B4A02EB81026261E16AE4
:1030300001EB8101374A52F82110491CE26A02EB88
:103040008202344B43F8221000BFBDE8F0872E49BE
:10305000096888692C490968C96AC1F105012A4AC9
:103060001268916170472848006830B126490968A4
:1030700001F14C00C96C491C01602348006870478D
:103080002DE9F04104460F4616460CB9012000E038
:10309000002050B900BF502080F31188BFF34F8F3C
:1030A000BFF36F8F00BF00BFFEE700F0D0FF1648F0
:1030B0000068503050F8240080B90121124800689F
:1030C0005430015556B13046FEF7B9FE4FF08050EE
:1030D00012490860BFF34F8FBFF36F8F00F0DEFF20
:1030E00000F0B5FF08480068503050F82450EDB1AA
:1030F000B7B1002104480068503040F8241015E0B2
:10310000500000204C000020280000204400002037
:1031100064000020040100204000002004ED00E0D5
:10312000681EFE490968503141F824000021FB481F
:1031300000685430015500F0B1FF2846BDE8F08129
:103140002DE9F04704460F4690461D46DDF82090D5
:103150000CB9012000E0002050B900BF502080F3DE
:103160001188BFF34F8FBFF36F8F00BF00BFFEE723
:1031700000F06DFFE94800685430005D02281AD065
:10318000E6490968503101EB84000168B9430160E8
:103190000121E248006854300155B9F1000F0AD00E
:1031A0004846FEF74CFE4FF08050DD490860BFF303
:1031B0004F8FBFF36F8F00F071FF00F048FF2DB10C
:1031C000D6480068503050F824002860D348006882
:1031D0005430005D022801D0002609E0CF4909687B
:1031E000503101EB8400016821EA080101600126E9
:1031F0000021CA4800685430015500F04FFF3046A6
:10320000BDE8F0872DE9F05F07460D461646984663
:10321000DDF828A04FF0010B0DB9012000E00020DF
:1032200050B900BF502080F31188BFF34F8FBFF318
:103230006F8F00BF00BFFEE757B900BF502080F37B
:103240001188BFF34F8FBFF36F8F00BF00BFFEE742
:103250003C4600F0FCFEBAF1000F05D004F150002E
:1032600050F82500CAF8000004F1540010F8059049
:1032700002214155B8F1050F29D2DFE808F02703F4
:103280000D171C0004F1500050F82500304304F1E4
:10329000500141F825002DE004F1500050F82500C0
:1032A000401C04F1500141F8250023E004F15000D6
:1032B00040F825601EE0B9F1020F04D004F150007F
:1032C00040F8256001E04FF0000B13E012E0954854
:1032D000006808B9012000E0002050B900BF50206C
:1032E00080F31188BFF34F8FBFF36F8F00BF00BF14
:1032F000FEE700BF00BFB9F1010F5BD16069D4E9FF
:1033000002128A60D4E902214A60211D42688A4281
:1033100001D1E1684160002262610168491E0160DB
:1033200094F82C10012088407F49096808437E49A1
:103330000860E16A01EB81017C4A02EB8101486887
:10334000A0608268E260211D826851608160E16A4C
:1033500001EB8101754A02EB81026261E16A01EBD6
:103360008101724A52F82110491CE26A02EB820282
:103370006E4B43F82210A06A08B9012000E000203B
:1033800050B900BF502080F31188BFF34F8FBFF3B7
:103390006F8F00BF00BFFEE76049E06A0968C96A35
:1033A000884207D94FF080505D490860BFF34F8FC6
:1033B000BFF36F8F00F072FE5846BDE8F09F2DE915
:1033C000F84F80460D4617469946DDF828B0012093
:1033D0000090B8F1000F0AD100BF502080F311888F
:1033E000BFF34F8FBFF36F8F00BF00BFFEE70DB974
:1033F000012000E0002050B900BF502080F3118868
:10340000BFF34F8FBFF36F8F00BF00BFFEE700F029
:1034100079FE444600BF5021EFF3118081F31188FB
:10342000BFF34F8FBFF36F8F00BF0646BBF1000F96
:1034300005D004F1500050F82500CBF8000004F14D
:10344000540010F805A002214155B9F1050F29D209
:10345000DFE809F027030D171C0004F1500050F8B5
:103460002500384304F1500141F825002DE004F116
:10347000500050F82500401C04F1500141F825008F
:1034800023E004F1500040F825701EE0BAF1020F6D
:1034900004D004F1500040F8257001E000200090B5
:1034A00013E012E01F48006808B9012000E0002086
:1034B00050B900BF502080F31188BFF34F8FBFF386
:1034C0006F8F00BF00BFFEE700BF00BFBAF1010F62
:1034D0007ED1A06A08B9012000E0002050B900BFE9
:1034E000502080F31188BFF34F8FBFF36F8F00BF61
:1034F00000BFFEE70E480068F0BB6069D4E9021225
:103500008A60D4E902214A60211D42688A4201D1C1
:10351000E16841600022626101680BE02800002040
:1035200004ED00E03C0000204000002004010020E9
:1035300064000020491E016094F82C10012088408E
:10354000AA4909680843A9490860E16A01EB8101B9
:10355000A74A02EB81014868A0608268E260211DF1
:10356000826851608160E16A01EB8101A04A02EB4F
:1035700081026261E16A00E00CE001EB81019C4A9A
:1035800052F82110491CE26A02EB8202984B43F880
:10359000221010E097494868E0618268226204F1D5
:1035A0001801826851608160924AA26211460968DE
:1035B000491C116000BF9049E06A0968C96A8842E5
:1035C00009D90B9810B101210B980160012000E08E
:1035D00001E08A49086000BF86F3118800BF0098A7
:1035E000BDE8F88F2DE9F04705460E46904655B9DF
:1035F00000BF502080F31188BFF34F8FBFF36F8F50
:1036000000BF00BFFEE70EB9012000E0002050B966
:1036100000BF502080F31188BFF34F8FBFF36F8F2F
:1036200000BF00BFFEE700F06DFD2C4600BF50213B
:10363000EFF3118081F31188BFF34F8FBFF36F8FCA
:1036400000BF074604F1540010F80690022181558E
:10365000001F50F82600401C04F1500141F82600DC
:10366000B9F1010F72D1A06A08B9012000E0002071
:1036700050B900BF502080F31188BFF34F8FBFF3C4
:103680006F8F00BF00BFFEE75D48006800283DD196
:103690006069D4E902128A60D4E902214A60211DDE
:1036A00042688A4201D1E16841600022626101689A
:1036B000491E016094F82C10012088404B4909688C
:1036C00008434A490860E16A01EB8101484A02EB7C
:1036D00081014868A0608268E260211D82685160B3
:1036E0008160E16A01EB8101414A02EB8102626182
:1036F000E16A01EB81013E4A52F82110491CE26A5D
:1037000002EB82023A4B43F8221010E03949486834
:10371000E0618268226204F1180182685160816070
:10372000344AA26211460968491C116000BF32493F
:10373000E06A0968C96A884208D9B8F1000F02D066
:103740000120C8F8000001202C49086000BF87F361
:10375000118800BFBDE8F0872DE9F04106460C4610
:103760000CB9012000E0002050B900BF502080F3C8
:103770001188BFF34F8FBFF36F8F00BF00BFFEE70D
:1037800016B91D48006800E03046074600F05FFCAF
:1037900007F15400005D022805D1002107F1540013
:1037A0000155012500E0002500F078FC2846BDE821
:1037B000F0812DE9F04106460C46174616B90E4831
:1037C000006800E03046054600F041FC05F150007D
:1037D00050F8248050F82400B84305F1500141F816
:1037E000240000F05BFC4046BDE8F0814000002072
:1037F0000401002090010020280000204C0000203F
:10380000640000202DE9F04104460D4616461F468F
:103810004FF0000865602461B5420CD8F01BA16927
:10382000884202D34FF0010811E0211DFB480068D7
:10383000FCF786FF0BE0BE4204D2BD4202D34FF03C
:10384000010804E0211DF6480068FCF779FF4046B6
:10385000BDE8F08170B504460D46164604E0A06947
:1038600005442046216A8847A06941192B46324603
:103870002046FFF7C7FF0028F1D170BD70B505469F
:103880000E46E7480068C068C468201DFCF772FF58
:1038900094F8280000F0040028B13246294620465A
:1038A000FFF7D8FF05E094F8280020F0010084F825
:1038B00028002046216A884770BD70B508E0D848C6
:1038C0000068C06804684FF0FF312046FFF7D6FF5C
:1038D000D3480068006808B9012000E000200028F3
:1038E000EDD0CF480568CD480068CD490860CB4889
:1038F000056070BD70B50446FEF7E6FE0546C94892
:103900000068854204D2FFF7D8FF0120206001E063
:1039100000202060C3480560284670BD7FB57FE069
:10392000019800287CDB039C606908B9012000E055
:10393000002010B9201DFCF71DFF6846FFF7DAFFD5
:10394000054601980A2869D2DFE800F06805072ECD
:10395000365806082F3700BF00BF00BF94F8280074
:1039600040F0010084F828000298A26981180346FB
:103970002A462046FFF746FFA8B194F8280000F039
:10398000040038B10298A26981182A462046FFF740
:1039900061FF05E094F8280020F0010084F8280079
:1039A0002046216A88473AE000BF94F8280020F0BA
:1039B000010084F8280032E000BF94F8280040F0AD
:1039C000010084F828000298A061A06908B10120D4
:1039D00000E0002050B900BF502080F31188BFF3F1
:1039E0004F8FBFF36F8F00BF00BFFEE7A069411983
:1039F0002B462A462046FFF705FF10E094F82800E2
:103A000000F0020018B9204600F0CEFC05E094F862
:103A1000280020F0010084F8280000E000BF00BF6B
:103A2000002201A980480068FDF76EFB00287FF4A2
:103A300077AF7FBDF8B505460C46FEF752FA6846EB
:103A4000FFF758FF0646009820BB44B9B54206D898
:103A5000FEF74CF931462846FFF710FF1CE03CB159
:103A60006E480068006808B9012000E000200446A4
:103A7000A91B22466C480068FDF776FEFEF736F972
:103A800050B94FF0805069490860BFF34F8FBFF3C2
:103A90006F8F01E0FEF72AF9F8BD0146604A12680F
:103AA00012680AB9012200E000220A600A6822B9FD
:103AB0005B4A1268D268106800E00020704708B5C1
:103AC00000BF6846FFF7E9FF044620460099FFF76C
:103AD000B1FFFFF723FFF4E710B500F0B8FA524842
:103AE0000068D0B95248FCF70FFE5248FCF70CFEB4
:103AF0004F484B4908604F484849086000220C2154
:103B00000A20FCF7CBFE484908600846006820B14F
:103B100049A145480068FDF7DAFD00F0BFFA10BD85
:103B20001CB50024FFF7D8FF3F48006858B144484F
:103B3000022100234FF48272CDE9001041A14348D5
:103B4000FDF734FF044654B900BF502080F31188BC
:103B5000BFF34F8FBFF36F8F00BF00BFFEE720465C
:103B60001CBD2DE9F04706460D4617469846DDE98F
:103B700008940DB1012000E0002050B900BF502092
:103B800080F31188BFF34F8FBFF36F8F00BF00BF6B
:103B9000FEE7FFF7A1FF2660A561C4F81C80C4F80A
:103BA0002090201DFCF7BDFD2FB194F8280040F0B7
:103BB000040084F82800BDE8F0872DE9FC4705469D
:103BC0000E4617469846DDF828902C2000F043FB5F
:103BD000044654B1002084F8280043463A46314652
:103BE0002846CDE90094FFF7BCFF2046BDE8FC87DE
:103BF0002DE9FE4304460D4616461F46DDF8288093
:103C00004FF0000924BB00BF502080F31188BFF3A0
:103C10004F8FBFF36F8F00BF00BFFEE76C00002027
:103C200068000020780000207000002004ED00E013
:103C3000CC010020E0010020546D72510000000012
:103C400074000020546D722053766300BF3A000860
:103C50007E48006810B3009501960294062D15DA8F
:103C6000FFF782F8022808D10023424669467748C8
:103C70000068FCF7D3FE814610E000231A4669462F
:103C800072480068FCF7CAFE814607E000233A4606
:103C900069466E480068FDF70EF981464846BDE862
:103CA000FE836B48006808B1012000E0002050B995
:103CB00000BF502080F31188BFF34F8FBFF36F8F89
:103CC00000BF00BFFEE762480068704701460A4631
:103CD00051B900BF502080F31188BFF34F8FBFF35D
:103CE0006F8F00BF00BFFEE79069704770B5054653
:103CF0000E462C4655B900BF502080F31188BFF303
:103D00004F8FBFF36F8F00BF00BFFEE700F09FF93A
:103D100036B194F8280040F0040084F8280005E04B
:103D200094F8280020F0040084F8280000F0B6F988
:103D300070BD70B50446264654B900BF502080F3CC
:103D40001188BFF34F8FBFF36F8F00BF00BFFEE737
:103D500000F07DF996F8280000F0040008B900256D
:103D600000E0012500F09AF9284670BD10B5014623
:103D70000A4651B900BF502383F31188BFF34F8F18
:103D8000BFF36F8F00BF00BFFEE7506810BD014654
:103D90000A4651B900BF502080F31188BFF34F8FFE
:103DA000BFF36F8F00BF00BFFEE71068704770B5AC
:103DB0000446264654B900BF502080F31188BFF353
:103DC0004F8FBFF36F8F00BF00BFFEE700F03FF9DA
:103DD00096F8280000F0010008B9002500E0012550
:103DE00000F05CF9284670BD70B50446254654B90C
:103DF00000BF502080F31188BFF34F8FBFF36F8F48
:103E000000BF00BFFEE700F022F9EE6900F046F9BE
:103E1000304670BD70B504460D46264654B900BF05
:103E2000502080F31188BFF34F8FBFF36F8F00BF17
:103E300000BFFEE700F00BF9F56100F02FF970BD4F
:103E40000146486A704741627047000070000020D8
:103E500074000020C6480068401C08B9012000E03A
:103E6000002050B900BF502080F31188BFF34F8F5E
:103E7000BFF36F8F00BF00BFFEE700BF502080F38D
:103E80001188BFF34F8FBFF36F8F00BF00BFFEE7F6
:103E9000001F4FF080730360001F21F001030360D7
:103EA000001FB44B036014380260001F6FF0020360
:103EB00003602038704700204FF0E02108618861DE
:103EC000AD4800684FF47A71B0FBF1F0401E4FF03E
:103ED000E02148610720086170471CB5A7480068C9
:103EE000A749884201D0012000E0002050B900BF5E
:103EF000502080F31188BFF34F8FBFF36F8F00BF47
:103F000000BFFEE79D4800689D49491E884201D0D8
:103F1000012000E0002050B900BF502080F311883C
:103F2000BFF34F8FBFF36F8F00BF00BFFEE7954910
:103F3000084600780190FF200A4610700846007875
:103F400000909DF8000000F0F0009DF800209042E5
:103F500001D1012000E0002050B900BF502080F3C3
:103F60001188BFF34F8FBFF36F8F00BF00BFFEE715
:103F70009DF8000000F05000834A10700720834A2B
:103F8000106009E081480068401E804A10609DF87A
:103F900000004006000E00909DF8000000F0800038
:103FA0008028EFD079480068C0F10700042801D1CB
:103FB000012000E0002050B900BF502080F311889C
:103FC000BFF34F8FBFF36F8F00BF00BFFEE76F4897
:103FD000006800026D4A10601046008800F4E0603E
:103FE0001060684A0198107064482030006840F4FE
:103FF00070006249203108600846006840F0704057
:104000000860FFF758FF002059490860FCF73CF9A9
:104010005F48006840F040405D490860FCF720F9C7
:1040200000201CBD52480068B0F57A7F01D1012004
:1040300000E0002050B900BF502080F31188BFF38A
:104040004F8FBFF36F8F00BF00BFFEE7704700BF09
:10405000502080F31188BFF34F8FBFF36F8F00BFE5
:1040600043480068401C424908600846006801282F
:1040700013D14248001D0068C0B208B9012000E019
:10408000002050B900BF502080F31188BFF34F8F3C
:10409000BFF36F8F00BF00BFFEE770473448006872
:1040A00050B900BF502080F31188BFF34F8FBFF38A
:1040B0006F8F00BF00BFFEE72D480068401E2C49EF
:1040C00008600846006820B9002080F3118800BF0E
:1040D00000BF704710B500BF502080F31188BFF3B8
:1040E0004F8FBFF36F8F00BFFDF712FD20B14FF070
:1040F00080502249091D086000BF002080F311880C
:1041000000BF10BD70B5FCF7F7F80446102C16D3AD
:1041100004F1E02090F8F0531B480078854201DB61
:10412000012000E0002050B900BF502080F311882A
:10413000BFF34F8FBFF36F8F00BF00BFFEE70F4885
:104140000C30006800F4E06010490968884201D82A
:10415000012000E0002050B900BF502080F31188FA
:10416000BFF34F8FBFF36F8F00BF00BFFEE770BD7F
:104170007C000020553E00081400002000ED00E007
:1041800071C20F4100E400E08000002084000020A4
:1041900034EF00E010B50146C64800E0006803684F
:1041A0008B42FBD30246436813448B4204D14368DD
:1041B0004C682344436001460A464B681344046834
:1041C000A34211D1BC4C03682468A34208D04B68B9
:1041D0000468646823444B6003681B680B6005E057
:1041E000B54B1B680B6001E003680B60884200D090
:1041F000016010BD30B54FF49633B04800F00704AD
:104200002CB1C01D20F00700AC4C041B1B1B024648
:10421000A84C22600024A74D6C60D018083820F00C
:104220000700A54C20600024A34D2D686C60A24DB2
:104230002D682C601146441A4C609F4C24680C6019
:104240009F4D4C682C609F4D4C682C604FF0004493
:104250009D4D2C6030BD2DE9F04104464FF0000823
:10426000FDF73FFE9448006808B9FFF7C3FF964882
:104270000068204000287DD13CB304F10800A04232
:1042800023D9083404F0070000B304F00700C0F19C
:1042900008002044A04216D904F00700C0F108002D
:1042A000044404F0070008B9012000E0002068B9C8
:1042B00000BF502080F31188BFF34F8FBFF36F8F83
:1042C00000BF00BFFEE7002400E00024002C54D013
:1042D0007C480068844250D8764E3046056801E03C
:1042E0002E462D686868A04202D228680028F7D1BF
:1042F00071480068854240D0306800F1080828689D
:1043000030606868001B102819D92F1907F00700C2
:1043100008B9012000E0002050B900BF502080F310
:104320001188BFF34F8FBFF36F8F00BF00BFFEE751
:104330006868001B78606C603846FFF72BFF6149A6
:1043400068680968081A5F490860084600685C499F
:104350000968884203D25B480068594908605A4995
:10436000686809680843686000202860574800684A
:10437000401C00E001E055490860FDF7B7FC08F07B
:10438000070008B9012000E0002050B900BF50200C
:1043900080F31188BFF34F8FBFF36F8F00BF00BF53
:1043A000FEE74046BDE8F08170B506463546002E72
:1043B00044D0083D2C46444960680968084008B16B
:1043C000012000E0002050B900BF502080F3118888
:1043D000BFF34F8FBFF36F8F00BF00BFFEE72068B2
:1043E00008B9012000E0002050B900BF502080F340
:1043F0001188BFF34F8FBFF36F8F00BF00BFFEE781
:104400003149606809680840C0B12068B0B92E49D8
:104410006068096888436060FDF763FD294960684A
:1044200009680844274908602046FFF7B3FE28487A
:104430000068401C26490860FDF758FC70BD214803
:10444000006870471E480068704770472DE9F041CA
:1044500004464FF000080026771EFDF742FD154880
:1044600005687DB100BF08F101086868B04200D955
:104470006E686868B84200D26F682D680E480068A0
:104480008542F0D1FDF732FC6660A760C4F80C806D
:10449000FFF7DDFD0B48006820600C480068606194
:1044A0000B480068A061064800682061FFF7F6FD30
:1044B000BDE8F0818800002090000020F401002079
:1044C0009800002094000020A40000209C00002000
:1044D000A000002032490143324A1160704770B594
:1044E000002100230F22C4781CB32E4C246804F44E
:1044F000E064C4F5E064C4F30721C1F10404E3B24D
:104500000A4144789C40E1B28478144021430C076E
:10451000210E254C05786155047804F01F0501240F
:10452000AC4005786D11AD0005F1E025C5F80041FE
:1045300009E0047804F01F050124AC401B4D067807
:10454000761145F8264070BD194A0A400243154BC2
:104550001B1F1A60704739B1124A121D12680243BC
:10456000104B1B1D1A6006E00E4A121D1268824392
:104570000C4B1B1D1A607047042808D14FF0E02136
:10458000096941F004014FF0E022116107E04FF0AA
:10459000E021096921F004014FF0E0221161704728
:1045A0000000FA050CED00E000E400E080E100E02E
:1045B00080FFFF1F10B504469848844208D10121AE
:1045C000084600F086FB0021012000F082FB76E027
:1045D0009348844208D10121022000F07AFB002197
:1045E000022000F076FB6AE08E48844208D1012167
:1045F000042000F06EFB0021042000F06AFB5EE066
:104600008948844208D10121082000F062FB002182
:10461000082000F05EFB52E08448844208D101216A
:10462000102000F056FB0021102000F052FB46E065
:104630007F48844208D10121202000F04AFB00215C
:10464000202000F046FB3AE07A48844208D101215C
:10465000402000F03EFB0021402000F03AFB2EE01D
:104660007548844208D10121802000F032FB0021EE
:10467000802000F02EFB22E07048844208D1012106
:10468000801500F026FB0021A01500F022FB16E0AB
:104690006B48844208D10121401500F01AFB00212B
:1046A000601500F016FB0AE06648844207D101213C
:1046B000001500F00EFB0021201500F00AFB10BDD4
:1046C000F0B50A4600210023002400BF3DE001258B
:1046D00005FA01F3156805EA03049C4234D1056824
:1046E0004F000326BE40B543056015794E00B54026
:1046F0000668354305601579012D02D01579022D24
:1047000016D185684F000326BE40B54385605579B4
:104710004E00B540866835438560456801268E4069
:10472000B5434560456896798E40B6B235434560DD
:10473000C5684F000326BE40B543C560D5794E001D
:10474000B540C6683543C560491C1029BFD3F0BDCC
:104750004FF6FF7101600021017141718171C171DA
:10476000704708B54FF480320092009A0A430092D5
:10477000009AC261C161009AC261C2690092C269B5
:10478000009208BD0246002013690B400BB10120C6
:1047900000E0002070470146086980B27047024679
:1047A000002053690B400BB1012000E0002070474E
:1047B0000146486980B27047018370474183704762
:1047C0000AB1018300E0418370474161704742694B
:1047D0004A4042617047F0B5002300244D07ED0EBA
:1047E00002FA05F3CE1000F1200555F826504E07C9
:1047F000F70E0F26BE40B543CF1000F1200646F855
:104800002750CE1000F1200555F8265045EA030444
:10481000CE1000F1200545F82640F0BD0000024012
:104820000004024000080240000C02400010024058
:104830000014024000180240001C02400020024008
:104840000024024000280240F948006840F00100BE
:10485000F74908600020F64908310860F44800680C
:10486000F4490840F2490860F348091D0860F3481C
:10487000EF4984310860F0481038091D0860EC48A1
:10488000006820F48020EA4908600020E8490C31E3
:104890000860E7498C31086070470021E44A921CA7
:1048A000117011460870704710B5014600220023B0
:1048B00000204A11012A02D1DD4C236808E0022AB7
:1048C00003D1DB4C7034236802E0D94C7434236884
:1048D00001F01F02012494401C400CB1012000E0B3
:1048E000002010BD38B5002000900024002500BF36
:1048F0003120FFF7D9FF05460098401C0090009832
:10490000B0F5A04F01D0002DF2D03120FFF7CCFF41
:1049100008B1012400E00024204638BD01460020F3
:10492000C34A106820F0F80040EAC10010607047E8
:10493000C349086070470021BD4A70321170117080
:10494000012802D004280AD104E00121B84A7032BB
:10495000117005E00521B64A7032117000E000BF09
:1049600000BF7047B7490860704770B5049C41EAC2
:1049700082150126C6EB530645EA0645054345EA7E
:104980000465AB4E361D356070BDAD490866704795
:10499000820142EA0172A64B84331A607047A8492B
:1049A0008866704710B5830143EA016343EA0273E6
:1049B0009F4C8834236010BDA14908677047A04907
:1049C000C864704702460020994B0833186820F0ED
:1049D000EC6042EA01031843954B083318607047B6
:1049E00002460020924B0833186820F0784042EAD3
:1049F000010318438E4B08331860704701460020AE
:104A00008B4A0832106820F003000843106070479A
:104A100087480830006800F00C007047014600200D
:104A2000834A0832106820F0F00008431060704795
:104A3000014600207E4A0832106820F4E050084306
:104A40001060704701460020794A0832106820F44F
:104A5000604040EAC10010607047F0B500210022BC
:104A60000024022500260223714F08373F6807F013
:104A70000C0121B1042905D0082937D105E0724F76
:104A8000076036E0714F076033E0694F3F1D3F68B4
:104A9000C7F38056664F3F1D3F6807F03F036EB176
:104AA0006A4FB7FBF3F7DFF888C10CF1040CDCF8B0
:104AB00000C0CCF3881C07FB0CF40CE0624FB7FB82
:104AC000F3F7DFF86CC10CF1040CDCF800C0CCF398
:104AD000881C07FB0CF4564F3F1D3F68C7F3014786
:104AE0007F1C7D00B4FBF5F7076002E0564F0760BE
:104AF00000BF00BF4E4F08373F6807F0F0010909BB
:104B0000534F7A5C0768D7404760494F08373F6882
:104B100007F4E051890A4E4F7A5C4768D7408760B6
:104B2000434F08373F6807F46041490B484F7A5CB0
:104B30004768D740C760F0BD002100F44072B2F56D
:104B4000407F0AD13A4A0832116821F4F811414AEB
:104B500002401143364A08321160354A70321268F9
:104B6000C0F30B031A43324B70331A607047354958
:104B70004439086070473349403908607047364906
:104B80000860704701460020294A8C32106820F0E6
:104B90001F004A1E1043264A8C321060704701469F
:104BA0000020234A8C32106820F4F8504A1E40EA54
:104BB00002201F4A8C3210607047014600201C4AB8
:104BC0008C32106820F44010084310607047014692
:104BD0000020174A8C32106820F44000084310600F
:104BE000704701460020124A8C32106820F4403091
:104BF00008431060704719490860704739B10C4A82
:104C00003032126802430A4B30331A6006E0084A19
:104C1000303212688243064B30331A607047F9B164
:104C2000034A343212680243014B34331A601CE0E9
:104C300000380240FFFFF6EA103000240030002068
:104C400000004742800E47420024F40000127A0020
:104C5000A8000020FFFCFF0F5C014742E011474223
:104C60008F4A126882438E4B1A60704739B18C4A62
:104C7000121D126802438A4B1B1D1A6006E0884A07
:104C8000121D12688243864B1B1D1A60704739B192
:104C9000834A0C3212680243814B0C331A6006E0DF
:104CA0007F4A0C32126882437D4B0C331A60704786
:104CB00039B17B4A103212680243794B10331A60C3
:104CC00006E0774A103212688243754B10331A603F
:104CD000704739B1724A243A12680243704B243B40
:104CE0001A6006E06E4A243A126882436C4B243BF9
:104CF0001A60704739B16A4A203A12680243684B19
:104D0000203B1A6006E0664A203A12688243644BF0
:104D1000203B1A60704739B1614A1C3A126802435D
:104D20005F4B1C3B1A6006E05D4A1C3A12688243E6
:104D30005B4B1C3B1A60704739B1594A143A1268F0
:104D40000243574B143B1A6006E0554A143A126866
:104D50008243534B143B1A60704739B1504A103AA2
:104D6000126802434E4B103B1A6006E04C4A103A60
:104D7000126882434A4B103B1A60704739B1484A67
:104D80001C3212680243464B1C331A6006E0444A48
:104D90001C3212688243424B1C331A60704739B18F
:104DA0003F4A2032126802433D4B20331A6006E02E
:104DB0003B4A203212688243394B20331A607047D5
:104DC00039B1374A243212680243354B24331A6012
:104DD00006E0334A243212688243314B24331A608E
:104DE000704739B12E4A2C32126802432C4B2C33B7
:104DF0001A6006E02A4A2C3212688243284B2C3370
:104E00001A60704739B1264A303212680243244B87
:104E100030331A6006E0224A303212688243204B57
:104E200030331A607047012808D11D493C310968A8
:104E300041F008011A4A3C32116007E018493C3140
:104E4000096821F00801164A3C321160704739B1F7
:104E5000134A273A12780243114B273B1A7006E097
:104E60000F4A273A127882430D4B273B1A7070473E
:104E70000B484030006840F08070094940310860BC
:104E8000704701460020064A283A12680A400AB1D3
:104E9000012000E000207047014926390870704762
:104EA0003438024010B50446FA48844208D1012142
:104EB0001020FFF752FF00211020FFF74EFF57E0B0
:104EC000F548844209D101214804FFF735FF00214C
:104ED0004FF40030FFF730FF4AE0F048844209D138
:104EE00001218804FFF728FF00214FF48020FFF7FD
:104EF00023FF3DE0EA48844209D10121C804FFF7BD
:104F00001BFF00214FF40020FFF716FF30E0E548BB
:104F1000844209D101210805FFF70EFF00214FF45B
:104F20008010FFF709FF23E0DF48844208D1012108
:104F30002020FFF712FF00212020FFF70EFF17E0CF
:104F4000DA48844209D101218807FFF7F5FE0021E4
:104F50004FF08040FFF7F0FE0AE0D548844207D1C9
:104F600001214005FFF7E8FE00216005FFF7E4FEA0
:104F700010BD2DE9FF4705460E460024A14600BF9F
:104F8000A046B08900B100BF2C8A24F44054F088B8
:104F900004432C82AC8941F20C608443B08831898F
:104FA0000843718908430443AC81AC8A24F44074FB
:104FB000B0890443AC826846FFF74FFDB54885428F
:104FC00002D0B948854202D1DDF80C9001E0DDF84D
:104FD0000890A88900F4004040B109EBC90000EB3B
:104FE000091031684900B0FBF1F707E009EBC9008F
:104FF00000EB091031688900B0FBF1F76420B7FBC2
:10500000F0F004012009642101FB1078A88900F464
:10501000004040B1322000EBC800B0FBF1F000F0DE
:105020000700044308E0322000EB08106421B0FBC5
:10503000F1F000F00F0004432C81BDE8FF874FF42E
:105040001651016000218180C18001810C214181C4
:1050500000218181704710B502460020108A20F49B
:1050600070600B884C8823438C882343CC8823436F
:105070001843108210BD0021018041808180C180D1
:10508000704721B1828942F40052828104E0828912
:105090004DF6FF731A4082817047028B02F47F4203
:1050A0000283028B0A430283704721B1828942F452
:1050B0000042828103E08289C2F30E02828170473E
:1050C00021B1828A42F40062828204E0828A4FF235
:1050D000FF731A4082827047C1F3080282807047D2
:1050E00001468888C0F308007047028A4FF6F073C3
:1050F0001A400282028A0A430282704721B18289E1
:1051000042F00202828104E082894FF6FD731A4068
:105110008281704782894FF2FF731A4082818289AF
:105120000A4382817047028A4FF6DF731A40028277
:10513000028A0A430282704721B1028A42F4804205
:10514000028204E0028A4BF6FF731A400282704723
:10515000818941F001018181704721B1828A42F049
:105160000802828204E0828A4FF6F7731A40828234
:105170007047028BD2B20283028B42EA0122028381
:10518000704721B1828A42F02002828204E0828A42
:105190004FF6DF731A408282704721B1828A42F053
:1051A0001002828204E0828A4FF6EF731A408282F4
:1051B0007047828A4FF6FB731A408282828A0A43C2
:1051C0008282704721B1828A42F00202828204E028
:1051D000828A4FF6FD731A40828270471AB1838A21
:1051E0000B43838202E0838A8B4383827047F0B54E
:1051F0000346002400260025002040F66A17B94225
:1052000000D100BF1846C1F3421401F01F06012768
:1052100007FA06F5012C01D10C3004E0022C01D173
:10522000103000E014301AB107682F43076002E025
:105230000768AF430760F0BD02460020B1F5007F6C
:1052400000D100BF13880B400BB1012000E000200B
:10525000704701F40072B2F5007F00D100BFCA436D
:105260000280704770B5024600240023002500200C
:1052700040F66A16B14200D100BFC1F3421501F0F9
:105280001F03012606FA03F3012D13D1968933403B
:1052900017E00000001001400044004000480040BA
:1052A000004C0040005000400014014000780040D5
:1052B000007C0040022D02D1168A334001E0968A1C
:1052C00033400C12012606FA04F41688344013B158
:1052D0000CB1012000E0002070BD10B500220023B9
:1052E00040F66A14A14200D100BF0A120124944082
:1052F000A3B2DC43048010BD10B5FDF735FD0128D5
:1053000001D0FEF7E7FE10BD70B504460420FFF79C
:1053100033F93248047025464FF47A704543012032
:105320002F4908804FF0E020006940F002004FF064
:10533000E021086108464561006940F0010008610C
:1053400070BD70B5034600224FF0E0267569234E0C
:10535000367803FB06F44FF0E026B16910E04FF019
:10536000E026B06988420BD0884202D20E1A32443D
:1053700002E02E1A0E4432440146A24200D300E05D
:10538000EDE700BF70BD70B50446FDF7EDFC0128E8
:1053900010D013480088844206D311480088B4FB1B
:1053A000F0F52846FCF708FE0D480088B4FBF0F144
:1053B00000FB11444FF47A7104FB01F0FFF7C1FFC9
:1053C00070BD30B50446002504E04FF47A70FFF755
:1053D000B8FF6D1CA542F8D330BD0000B800002016
:1053E000BA00002000BF704700BF4C4A128802F08C
:1053F0004002002AF9D0C2B2484B9A80704710B5DB
:1054000088B0044601210846FFF7F8FB012110206F
:10541000FFF74EFC072209214148FFF7DCF907227C
:105420000A213F48FFF7D7F94FF4C06006900220E9
:105430008DF81C008DF81D0000208DF81E00012045
:105440008DF81F0006A93648FFF73AF902940020AC
:10545000ADF80C00ADF80E00ADF81000ADF814007A
:105460000C20ADF8120002A92C48FFF782FD0121A3
:105470002A48FFF706FE012240F225512748FFF790
:10548000B6FE25208DF8040003208DF805008DF868
:10549000060001208DF8070001A8FFF720F808B0EA
:1054A00010BD10B540F225511C48FFF7DBFE10B3CC
:1054B0001A48FFF715FEC4B21A48008800F40040ED
:1054C000C8B91848008800F4804060B10A2C03D0A5
:1054D00000201449088020E01248008840F4004071
:1054E0001049088019E00D2C06D10E48008840F4C0
:1054F00080400C49088010E00A480088C0F30D0085
:1055000009490C5407480088401C06490880084691
:105510000088C72801DD0020088010BD0010014070
:1055200000000240C0000020F42D01207047000060
:105530000FB4044910B503AA029800F013FB10BC85
:105540005DF814FBBC0000202DE9F0474FF0000A85
:1055500089460446C0F820A02046E1688847002814
:1055600076D0252806D0D4E901219047206A401C36
:105570002062F1E7E168204600258847C4F81CA0B6
:1055800006460027C4F818A02A2E09D0304601F09C
:10559000B9F838B304EB8708303EC8F8186019E052
:1055A00059F8041B204604EB87029161E1688847A3
:1055B000012F064618D1E069002820DA25F02005E1
:1055C0001DE0D8F8180000EB800006EB40003038F2
:1055D000C8F818002046E1688847064601F092F8AE
:1055E0000028EED1012F0AD02E2E08D12046E168E6
:1055F00088477F1C0646022F45F02005C4DBA069C2
:10560000002803DA404245F00105A061E80701D017
:1056100025F01005B6B1A6F14100192802D82036B0
:1056200045F400654A463146204625604D46FAF766
:10563000E5FD58B1012806D0ED1D25F0070000F169
:10564000080989E704E005F1040985E730468AE79F
:10565000206ABDE8F087032A40F2308010F0030C86
:1056600000F0158011F8013BBCF1020F624498BFB5
:1056700011F801CB00F8013B38BF11F8013BA2F152
:10568000040298BF00F801CB38BF00F8013B11F0CD
:10569000030300F07982083AC0F0088051F8043B17
:1056A000083A51F804CBA0E80810F5E7121D5CBFDA
:1056B00051F8043B40F8043BAFF30080D20724BF0D
:1056C00011F8013B11F801CB48BF11F8012B24BFA1
:1056D00000F8013B00F801CB48BF00F8012B7047F0
:1056E00002F0FF0343EA032242EA024200F080BADA
:1056F0004FF0000200B5134694469646203922BF6B
:10570000A0E80C50A0E80C50B1F12001BFF4F7AFB5
:10571000090728BFA0E80C5048BF0CC05DF804EB97
:10572000890028BF40F8042B08BF704748BF20F805
:10573000022B11F0804F18BF00F8012B7047704703
:1057400070477047704770472DE9FF4F0C461E4663
:105750004FF0FF378BB0D2E90001DDF860800A908E
:105760008A46C1F30A5505B93D46002108464FF067
:105770000000BAF1000F00F4400005DA00EB8000F1
:105780004FF4400101EA50004FEA9059B9F1010F7E
:1057900000DDB9460A9850EA4A000ED044F610508F
:1057A000A5F2FF3545432F14B8F1000F1ED0754206
:1057B000291E1EDDC9F100021CE0B8F1010F4FF0F7
:1057C000000001D0302103E0F24305E02154401CE9
:1057D000B042FBDB30460022002121540B99C1F876
:1057E0000880C1E900200FB0BDE8F08FBD1B6D1C23
:1057F000DEE74A4600DA694206A800F0BBFA06ABCB
:1058000093E8070003AB83E8070050460A9900F0CD
:1058100099FB8DE80700A0F500501F380090039811
:10582000002D0ADD42F21F014A460844002303A965
:105830000390684600F002FE09E0A0F500504A46D9
:105840001F38002303A90390684600F00CFE8DE882
:1058500007000004000C03D04FF0FF30410800E0C7
:105860001046B8F1000F03D00022009215461EE04A
:10587000751E05D400F0E0F9303262556D1EF9D581
:10588000B3460122084302D000227F1C04E02078A6
:10589000302801D100227F1E002A099784D01DE004
:1058A000112D07DA00F0C8F9303262556D1C50EA4C
:1058B0000102F5D1084302D00098C8B10EE00021E2
:1058C000681E05E0235C625C63542254401E491C40
:1058D0008142F7DBAB46A81B401E0990002004F86C
:1058E0000B000B98099AC0F80880C0E9002B7AE7F2
:1058F00011264FF0000857E72DE9F04F884604467F
:10590000D21D22F0070191B0D1E90001CDE90A01D1
:1059100000F0E0FE02460B98C00F01D02D2007E0FA
:105920002068810701D52B2002E0202101EAC00078
:10593000032A099001D0072A05DB03464146204689
:1059400000F0D8F90BE12078800601D5E06900E08D
:105950000620B8F1650F814606D0B8F1660F18D061
:10596000B8F1670F70D131E00020B9F1110F00904C
:1059700001DB112301E009F101030AAA01A90CA826
:10598000FFF7E2FEDDE90C70002609F10105834610
:1059900047E001204B4600904FF000470AAA01A9BA
:1059A0000CA8FFF7D1FEDDE90DB00C995D4600268D
:1059B00010B909F101000D18B9EB050003D4C0F1CD
:1059C000FF3609F10105A5EB09002BE0B9F1010F44
:1059D00001DA4FF001090020B9F1110F009048469B
:1059E00001DD112300E003460AAA01A90CA8FFF774
:1059F000ABFEDDE90C704D4600268346207800079B
:105A00000AD4AB4500DA5D4601A8012D04DD411939
:105A100011F8011C302907D04F4502DA17F1040FA5
:105A200004DA012082460FE06D1EEEE7002F02DC53
:105A3000ED1B3E4403E0781CA84200DD7D1CB81B32
:105A400000F1010A4FF000472078000703D4AA456F
:105A500001DB4FF0FF3A0021B7F1004F0DF1430891
:105A60008DF8431024D002202B23002F01DA7F422F
:105A70002D230A21021EA0F1010000DC5FB197FB7B
:105A8000F1FC97FBF1F201FB1C7C17460CF1300C8A
:105A900008F801CDEEE7A8F101000370218809059F
:105AA00001D5452100E06521A0F1010800F8011CA5
:105AB00009980FA9A1EB0807FF1D00B101204119AA
:105AC00001EBEA70A1693844081A401EA0612078F1
:105AD000C00602D42046AFF30080099828B1D4E96B
